{
  "contractName": "Stack",
  "abi": [
    {
      "constant": true,
      "inputs": [],
      "name": "totalCapacity",
      "outputs": [
        {
          "name": "",
          "type": "uint256"
        }
      ],
      "payable": false,
      "stateMutability": "view",
      "type": "function"
    },
    {
      "constant": true,
      "inputs": [
        {
          "name": "",
          "type": "uint256"
        }
      ],
      "name": "strg",
      "outputs": [
        {
          "name": "",
          "type": "uint256"
        }
      ],
      "payable": false,
      "stateMutability": "view",
      "type": "function"
    },
    {
      "constant": true,
      "inputs": [],
      "name": "stackPointer",
      "outputs": [
        {
          "name": "",
          "type": "uint256"
        }
      ],
      "payable": false,
      "stateMutability": "view",
      "type": "function"
    },
    {
      "constant": true,
      "inputs": [
        {
          "name": "",
          "type": "uint256"
        }
      ],
      "name": "exportValue",
      "outputs": [
        {
          "name": "",
          "type": "uint256"
        }
      ],
      "payable": false,
      "stateMutability": "view",
      "type": "function"
    },
    {
      "inputs": [
        {
          "name": "_totalCapacity",
          "type": "uint256"
        }
      ],
      "payable": false,
      "stateMutability": "nonpayable",
      "type": "constructor"
    },
    {
      "constant": true,
      "inputs": [],
      "name": "height",
      "outputs": [
        {
          "name": "",
          "type": "uint256"
        }
      ],
      "payable": false,
      "stateMutability": "view",
      "type": "function"
    },
    {
      "constant": false,
      "inputs": [
        {
          "name": "_size",
          "type": "uint256"
        }
      ],
      "name": "push",
      "outputs": [],
      "payable": false,
      "stateMutability": "nonpayable",
      "type": "function"
    },
    {
      "constant": false,
      "inputs": [],
      "name": "pop",
      "outputs": [],
      "payable": false,
      "stateMutability": "nonpayable",
      "type": "function"
    },
    {
      "constant": false,
      "inputs": [],
      "name": "empty",
      "outputs": [],
      "payable": false,
      "stateMutability": "nonpayable",
      "type": "function"
    },
    {
      "constant": true,
      "inputs": [
        {
          "name": "slotIndex",
          "type": "uint256"
        },
        {
          "name": "position",
          "type": "uint256"
        }
      ],
      "name": "positionIsOnSlot",
      "outputs": [
        {
          "name": "",
          "type": "bool"
        }
      ],
      "payable": false,
      "stateMutability": "view",
      "type": "function"
    }
  ],
  "bytecode": "0x608060405234801561001057600080fd5b506040516020806105bd8339810180604052810190808051906020019092919050505080600381905550506105738061004a6000396000f300608060405260043610610099576000357c0100000000000000000000000000000000000000000000000000000000900463ffffffff1680630ef267431461009e5780632f91f1f4146100c95780634a720f27146100f45780635439e423146101355780636f54dce514610160578063959ac484146101af578063a4ece52c146101dc578063b1becf2a146101f3578063f2a75fe414610234575b600080fd5b3480156100aa57600080fd5b506100b361024b565b6040518082815260200191505060405180910390f35b3480156100d557600080fd5b506100de610255565b6040518082815260200191505060405180910390f35b34801561010057600080fd5b5061011f6004803603810190808035906020019092919050505061025b565b6040518082815260200191505060405180910390f35b34801561014157600080fd5b5061014a61027e565b6040518082815260200191505060405180910390f35b34801561016c57600080fd5b506101956004803603810190808035906020019092919080359060200190929190505050610284565b604051808215151515815260200191505060405180910390f35b3480156101bb57600080fd5b506101da60048036038101908080359060200190929190505050610300565b005b3480156101e857600080fd5b506101f16103e3565b005b3480156101ff57600080fd5b5061021e600480360381019080803590602001909291905050506104f3565b6040518082815260200191505060405180910390f35b34801561024057600080fd5b5061024961050b565b005b6000600454905090565b60035481565b60008181548110151561026a57fe5b906000526020600020016000915090505481565b60025481565b6000808314156102b25760008381548110151561029d57fe5b906000526020600020015482111590506102fa565b6000600184038154811015156102c457fe5b906000526020600020015482101580156102f757506000838154811015156102e857fe5b90600052602060002001548211155b90505b92915050565b60035481600254011115151561037e576040517f08c379a00000000000000000000000000000000000000000000000000000000081526004018080602001828103825260128152602001807f424c4f434b5f4e554d5f4f564552464c4f57000000000000000000000000000081525060200191505060405180910390fd5b60008160025401908060018154018082558091505090600182039060005260206000200160009091929091909150555080600260008282540192505081905550600460008154809291906001019190505550600354600254111515156103e057fe5b50565b600080600080549050111515610461576040517f08c379a000000000000000000000000000000000000000000000000000000000815260040180806020018281038252600d8152602001807f454d5054592053544f524147450000000000000000000000000000000000000081525060200191505060405180910390fd5b600060016000805490500381548110151561047857fe5b90600052602060002001549050600060016000805490500381548110151561049c57fe5b90600052602060002001600090556000808054905014156104cc57600060048190555060006002819055506104f0565b60046000815480929190600190039190505550806002600082825403925050819055505b50565b60016020528060005260406000206000915090505481565b60008090505b60008054905081111515610534576105276103e3565b8080600101915050610511565b6000808054905014151561054457fe5b505600a165627a7a72305820bc935eb3467072bc2fe268e50839cd1eacc31a6907a63c3e8b0a53fcc9e61bf50029",
  "source": "pragma solidity 0.4.24;\n\nimport \"openzeppelin-solidity/contracts/math/SafeMath.sol\";\n\n/**\n * A simple FIFO blockstack. \n * Enables to manage tasks inside a certain capacity \n */\n\ncontract Stack { \n    \n    // Each Value represents the final position of a slot\n    uint256[] public strg; \n    \n    //Assigned value for each Slot\n    mapping (uint256 => uint256) public exportValue;\n\n    // Current pointer of the Stack\n    uint256 public stackPointer;\n\n    // Total Capacity assigned for this stack\n    uint256 public totalCapacity;\n\n    // Current height (number of assigned Slots) of this Stack\n    uint256 public height; \n\n\n    constructor(uint256 _totalCapacity) public {\n        totalCapacity = _totalCapacity;\n    }\n\n    /**\n     * Current amount of slots that are used inside the stack\n     * @return height uint representing the amount of slots already reserved in the stack\n     */\n\n    function height() public view returns (uint256){\n        return height;\n    }\n\n    /**\n     * Push a new value to storage if it fits, thus moving the pointer += size\n     * @param _size value that will be inserted into the stack\n     */\n\n    function push(uint256 _size) public {\n        require((stackPointer + _size) <= totalCapacity, 'BLOCK_NUM_OVERFLOW');\n        strg.push(stackPointer + _size);\n        stackPointer += _size;\n        height ++;\n        assert(stackPointer <= totalCapacity);\n    }\n\n    /**\n     * Pops the last value from storage\n     */\n    function pop() public {\n        require(strg.length > 0, 'EMPTY STORAGE');\n        uint256 slotSizeToEmpty = strg[strg.length-1];\n        delete strg[strg.length-1];\n        if (strg.length == 0) {\n            height = 0;\n            stackPointer = 0;\n        }\n        else{\n            height --;\n            stackPointer -= slotSizeToEmpty;\n        }\n    }\n\n    /**\n     * Removes every single value from the Stack\n     */\n    function empty() public {\n        for (uint i = 0; i <= strg.length; i++){\n            pop();\n        }\n        assert(strg.length == 0);\n    }\n\n    /**\n     * Returns true if a given position is in the range of a certain slot\n     * @param slotIndex Position in the storage array\n     * @param position Position that is checked to be inside the slot range\n     * @return true if the position i is inside the given slot\n     */\n\n    function positionIsOnSlot(uint256 slotIndex, uint256 position) public view returns (bool) {\n        if(slotIndex == 0){\n            return  position <= strg[slotIndex];\n        }\n        else{\n            return (position >= strg[slotIndex-1] && position <= strg[slotIndex]);\n        }\n    }\n\n}",
  "sourcePath": "@frontier-token-research/cron/contracts/Stack.sol",
  "compiler": {
    "name": "solc",
    "version": "0.4.24+commit.e67f0147.Emscripten.clang"
  },
  "schemaVersion": "2.0.0",
  "updatedAt": "2018-10-10T20:03:27.791Z"
}