{
  "contractName": "TRL",
  "abi": [
    {
      "constant": true,
      "inputs": [],
      "name": "candidateRegistry",
      "outputs": [
        {
          "name": "",
          "type": "address"
        }
      ],
      "payable": false,
      "stateMutability": "view",
      "type": "function"
    },
    {
      "constant": true,
      "inputs": [
        {
          "name": "",
          "type": "uint256"
        },
        {
          "name": "",
          "type": "address"
        }
      ],
      "name": "votesReceived",
      "outputs": [
        {
          "name": "",
          "type": "uint256"
        }
      ],
      "payable": false,
      "stateMutability": "view",
      "type": "function"
    },
    {
      "constant": true,
      "inputs": [
        {
          "name": "",
          "type": "uint256"
        }
      ],
      "name": "votingConstraints",
      "outputs": [
        {
          "name": "",
          "type": "uint256"
        }
      ],
      "payable": false,
      "stateMutability": "view",
      "type": "function"
    },
    {
      "constant": true,
      "inputs": [
        {
          "name": "",
          "type": "uint256"
        },
        {
          "name": "",
          "type": "address"
        }
      ],
      "name": "votesBalance",
      "outputs": [
        {
          "name": "",
          "type": "uint256"
        }
      ],
      "payable": false,
      "stateMutability": "view",
      "type": "function"
    },
    {
      "constant": true,
      "inputs": [],
      "name": "periodicStages",
      "outputs": [
        {
          "name": "",
          "type": "address"
        }
      ],
      "payable": false,
      "stateMutability": "view",
      "type": "function"
    },
    {
      "constant": true,
      "inputs": [],
      "name": "owner",
      "outputs": [
        {
          "name": "",
          "type": "address"
        }
      ],
      "payable": false,
      "stateMutability": "view",
      "type": "function"
    },
    {
      "constant": true,
      "inputs": [],
      "name": "voterRegistry",
      "outputs": [
        {
          "name": "",
          "type": "address"
        }
      ],
      "payable": false,
      "stateMutability": "view",
      "type": "function"
    },
    {
      "constant": true,
      "inputs": [
        {
          "name": "",
          "type": "uint256"
        }
      ],
      "name": "stakingConstraints",
      "outputs": [
        {
          "name": "",
          "type": "uint256"
        }
      ],
      "payable": false,
      "stateMutability": "view",
      "type": "function"
    },
    {
      "constant": false,
      "inputs": [
        {
          "name": "newOwner",
          "type": "address"
        }
      ],
      "name": "transferOwnership",
      "outputs": [],
      "payable": false,
      "stateMutability": "nonpayable",
      "type": "function"
    },
    {
      "constant": true,
      "inputs": [],
      "name": "token",
      "outputs": [
        {
          "name": "",
          "type": "address"
        }
      ],
      "payable": false,
      "stateMutability": "view",
      "type": "function"
    },
    {
      "inputs": [
        {
          "name": "_tokenAddress",
          "type": "address"
        },
        {
          "name": "_candidateRegistryAddress",
          "type": "address"
        },
        {
          "name": "_voterRegistryAddress",
          "type": "address"
        },
        {
          "name": "_initialTTL",
          "type": "uint256"
        },
        {
          "name": "_initialActiveTime",
          "type": "uint256"
        },
        {
          "name": "_initialClaimTime",
          "type": "uint256"
        }
      ],
      "payable": false,
      "stateMutability": "nonpayable",
      "type": "constructor"
    },
    {
      "anonymous": false,
      "inputs": [
        {
          "indexed": true,
          "name": "previousOwner",
          "type": "address"
        },
        {
          "indexed": true,
          "name": "newOwner",
          "type": "address"
        }
      ],
      "name": "OwnershipTransferred",
      "type": "event"
    },
    {
      "anonymous": false,
      "inputs": [
        {
          "indexed": false,
          "name": "_T",
          "type": "uint256"
        },
        {
          "indexed": false,
          "name": "_active",
          "type": "uint256"
        },
        {
          "indexed": false,
          "name": "_claim",
          "type": "uint256"
        }
      ],
      "name": "PeriodInit",
      "type": "event"
    },
    {
      "anonymous": false,
      "inputs": [
        {
          "indexed": true,
          "name": "_recipient",
          "type": "address"
        },
        {
          "indexed": false,
          "name": "_amount",
          "type": "uint256"
        },
        {
          "indexed": false,
          "name": "_period",
          "type": "uint256"
        }
      ],
      "name": "VotesBought",
      "type": "event"
    },
    {
      "anonymous": false,
      "inputs": [
        {
          "indexed": true,
          "name": "_recipient",
          "type": "address"
        },
        {
          "indexed": false,
          "name": "_amount",
          "type": "uint256"
        },
        {
          "indexed": false,
          "name": "_period",
          "type": "uint256"
        }
      ],
      "name": "BountyRelased",
      "type": "event"
    },
    {
      "anonymous": false,
      "inputs": [
        {
          "indexed": false,
          "name": "_amount",
          "type": "uint256"
        }
      ],
      "name": "MinimumStakeSet",
      "type": "event"
    },
    {
      "anonymous": false,
      "inputs": [
        {
          "indexed": true,
          "name": "_voterAddress",
          "type": "address"
        },
        {
          "indexed": true,
          "name": "_candidateAddress",
          "type": "address"
        },
        {
          "indexed": false,
          "name": "_amount",
          "type": "uint256"
        },
        {
          "indexed": false,
          "name": "_periodIndex",
          "type": "uint256"
        }
      ],
      "name": "Vote",
      "type": "event"
    },
    {
      "constant": false,
      "inputs": [
        {
          "name": "_periodTTL",
          "type": "uint256"
        },
        {
          "name": "_activeTime",
          "type": "uint256"
        },
        {
          "name": "_claimTime",
          "type": "uint256"
        }
      ],
      "name": "initPeriod",
      "outputs": [],
      "payable": false,
      "stateMutability": "nonpayable",
      "type": "function"
    },
    {
      "constant": false,
      "inputs": [
        {
          "name": "_amount",
          "type": "uint256"
        }
      ],
      "name": "buyTokenVotes",
      "outputs": [],
      "payable": false,
      "stateMutability": "nonpayable",
      "type": "function"
    },
    {
      "constant": false,
      "inputs": [
        {
          "name": "_candidateAddress",
          "type": "address"
        },
        {
          "name": "_amount",
          "type": "uint256"
        }
      ],
      "name": "vote",
      "outputs": [],
      "payable": false,
      "stateMutability": "nonpayable",
      "type": "function"
    },
    {
      "constant": false,
      "inputs": [],
      "name": "claimBounty",
      "outputs": [],
      "payable": false,
      "stateMutability": "nonpayable",
      "type": "function"
    },
    {
      "constant": false,
      "inputs": [
        {
          "name": "_minimumStakeAmount",
          "type": "uint256"
        }
      ],
      "name": "setMinimumStake",
      "outputs": [],
      "payable": false,
      "stateMutability": "nonpayable",
      "type": "function"
    },
    {
      "constant": false,
      "inputs": [
        {
          "name": "_maximumStakeAmount",
          "type": "uint256"
        }
      ],
      "name": "setMaximumStake",
      "outputs": [],
      "payable": false,
      "stateMutability": "nonpayable",
      "type": "function"
    },
    {
      "constant": false,
      "inputs": [
        {
          "name": "_minVoteAmount",
          "type": "uint256"
        }
      ],
      "name": "setMinVotingLimit",
      "outputs": [],
      "payable": false,
      "stateMutability": "nonpayable",
      "type": "function"
    },
    {
      "constant": false,
      "inputs": [
        {
          "name": "_maxVoteAmount",
          "type": "uint256"
        }
      ],
      "name": "setMaxVotingLimit",
      "outputs": [],
      "payable": false,
      "stateMutability": "nonpayable",
      "type": "function"
    },
    {
      "constant": true,
      "inputs": [],
      "name": "currentPeriod",
      "outputs": [
        {
          "name": "",
          "type": "uint256"
        }
      ],
      "payable": false,
      "stateMutability": "view",
      "type": "function"
    },
    {
      "constant": true,
      "inputs": [],
      "name": "currentStage",
      "outputs": [
        {
          "name": "",
          "type": "uint256"
        }
      ],
      "payable": false,
      "stateMutability": "view",
      "type": "function"
    },
    {
      "constant": true,
      "inputs": [
        {
          "name": "_poolAmount",
          "type": "uint256"
        },
        {
          "name": "_claimerVotes",
          "type": "uint256"
        },
        {
          "name": "_totalVotes",
          "type": "uint256"
        }
      ],
      "name": "calculateReward",
      "outputs": [
        {
          "name": "",
          "type": "uint256"
        }
      ],
      "payable": false,
      "stateMutability": "pure",
      "type": "function"
    },
    {
      "constant": false,
      "inputs": [],
      "name": "launchTestEvent",
      "outputs": [],
      "payable": false,
      "stateMutability": "nonpayable",
      "type": "function"
    }
  ],
  "bytecode": "0x60806040526040805190810160405280600060ff16815260200160fd60ff16815250600890600262000033929190620004b9565b506040805190810160405280600060ff16815260200160fd60ff16815250600a90600262000063929190620004b9565b503480156200007157600080fd5b5060405160c08062003ff783398101806040528101908080519060200190929190805190602001909291908051906020019092919080519060200190929190805190602001909291908051906020019092919050505033600360006101000a81548173ffffffffffffffffffffffffffffffffffffffff021916908373ffffffffffffffffffffffffffffffffffffffff160217905550600073ffffffffffffffffffffffffffffffffffffffff168573ffffffffffffffffffffffffffffffffffffffff1614158015620001735750600073ffffffffffffffffffffffffffffffffffffffff168473ffffffffffffffffffffffffffffffffffffffff1614155b8015620001ad5750600073ffffffffffffffffffffffffffffffffffffffff168673ffffffffffffffffffffffffffffffffffffffff1614155b1515620001b957600080fd5b85600660006101000a81548173ffffffffffffffffffffffffffffffffffffffff021916908373ffffffffffffffffffffffffffffffffffffffff16021790555084600460006101000a81548173ffffffffffffffffffffffffffffffffffffffff021916908373ffffffffffffffffffffffffffffffffffffffff16021790555083600560006101000a81548173ffffffffffffffffffffffffffffffffffffffff021916908373ffffffffffffffffffffffffffffffffffffffff16021790555062000298838383620002a4640100000000026401000000009004565b5050505050506200053c565b82620002af62000503565b80828152602001915050604051809103906000f080158015620002d6573d6000803e3d6000fd5b50600760006101000a81548173ffffffffffffffffffffffffffffffffffffffff021916908373ffffffffffffffffffffffffffffffffffffffff160217905550600760009054906101000a900473ffffffffffffffffffffffffffffffffffffffff1673ffffffffffffffffffffffffffffffffffffffff1663842652a6836040518263ffffffff167c010000000000000000000000000000000000000000000000000000000002815260040180828152602001915050600060405180830381600087803b158015620003a957600080fd5b505af1158015620003be573d6000803e3d6000fd5b50505050600760009054906101000a900473ffffffffffffffffffffffffffffffffffffffff1673ffffffffffffffffffffffffffffffffffffffff1663842652a6826040518263ffffffff167c010000000000000000000000000000000000000000000000000000000002815260040180828152602001915050600060405180830381600087803b1580156200045457600080fd5b505af115801562000469573d6000803e3d6000fd5b505050507ff369b06e840a30eacc9a6075343f62ef138689a44c1c3ef52cb24e6c692c980483838360405180848152602001838152602001828152602001935050505060405180910390a1505050565b8260028101928215620004f0579160200282015b82811115620004ef578251829060ff16905591602001919060010190620004cd565b5b509050620004ff919062000514565b5090565b604051610ecd806200312a83390190565b6200053991905b80821115620005355760008160009055506001016200051b565b5090565b90565b612bde806200054c6000396000f3006080604052600436106200013f576000357c0100000000000000000000000000000000000000000000000000000000900463ffffffff16806306040618146200014457806319de04771462000172578063233e990314620001cc57806333dd6bed14620001fc5780633c84107f146200026057806356f7459314620002a45780635706d0ec14620002d45780635bf5d54c14620003385780635e1ce58a14620003665780635f74bbde146200039657806381c8a8c414620003e65780638da5cb5b14620004405780639a1289ec146200049a578063a8e62b9714620004ca578063b85d84f61462000522578063bcb5c6361462000566578063be60040e1462000596578063dac93e1b14620005f0578063e7fde8cb1462000634578063ee4be288146200064e578063f2fde38b1462000668578063fc0c546a14620006ae575b600080fd5b3480156200015157600080fd5b506200015c62000708565b6040518082815260200191505060405180910390f35b3480156200017f57600080fd5b506200018a6200087f565b604051808273ffffffffffffffffffffffffffffffffffffffff1673ffffffffffffffffffffffffffffffffffffffff16815260200191505060405180910390f35b348015620001d957600080fd5b50620001fa60048036038101908080359060200190929190505050620008a5565b005b3480156200020957600080fd5b506200024a60048036038101908080359060200190929190803573ffffffffffffffffffffffffffffffffffffffff1690602001909291905050506200091c565b6040518082815260200191505060405180910390f35b3480156200026d57600080fd5b506200028e6004803603810190808035906020019092919050505062000941565b6040518082815260200191505060405180910390f35b348015620002b157600080fd5b50620002d2600480360381019080803590602001909291905050506200095c565b005b348015620002e157600080fd5b506200032260048036038101908080359060200190929190803573ffffffffffffffffffffffffffffffffffffffff169060200190929190505050620009d3565b6040518082815260200191505060405180910390f35b3480156200034557600080fd5b5062000350620009f8565b6040518082815260200191505060405180910390f35b3480156200037357600080fd5b50620003946004803603810190808035906020019092919050505062000ac3565b005b348015620003a357600080fd5b50620003e4600480360381019080803573ffffffffffffffffffffffffffffffffffffffff1690602001909291908035906020019092919050505062000d63565b005b348015620003f357600080fd5b50620003fe62000fa8565b604051808273ffffffffffffffffffffffffffffffffffffffff1673ffffffffffffffffffffffffffffffffffffffff16815260200191505060405180910390f35b3480156200044d57600080fd5b506200045862000fce565b604051808273ffffffffffffffffffffffffffffffffffffffff1673ffffffffffffffffffffffffffffffffffffffff16815260200191505060405180910390f35b348015620004a757600080fd5b50620004c86004803603810190808035906020019092919050505062000ff4565b005b348015620004d757600080fd5b506200050c6004803603810190808035906020019092919080359060200190929190803590602001909291905050506200106b565b6040518082815260200191505060405180910390f35b3480156200052f57600080fd5b5062000564600480360381019080803590602001909291908035906020019092919080359060200190929190505050620010b6565b005b3480156200057357600080fd5b506200059460048036038101908080359060200190929190505050620012cb565b005b348015620005a357600080fd5b50620005ae62001342565b604051808273ffffffffffffffffffffffffffffffffffffffff1673ffffffffffffffffffffffffffffffffffffffff16815260200191505060405180910390f35b348015620005fd57600080fd5b506200061e6004803603810190808035906020019092919050505062001368565b6040518082815260200191505060405180910390f35b3480156200064157600080fd5b506200064c62001383565b005b3480156200065b57600080fd5b5062000666620013f5565b005b3480156200067557600080fd5b50620006ac600480360381019080803573ffffffffffffffffffffffffffffffffffffffff1690602001909291905050506200182d565b005b348015620006bb57600080fd5b50620006c662001987565b604051808273ffffffffffffffffffffffffffffffffffffffff1673ffffffffffffffffffffffffffffffffffffffff16815260200191505060405180910390f35b6000806000600760009054906101000a900473ffffffffffffffffffffffffffffffffffffffff1673ffffffffffffffffffffffffffffffffffffffff1663ef78d4fd6040518163ffffffff167c0100000000000000000000000000000000000000000000000000000000028152600401602060405180830381600087803b1580156200079457600080fd5b505af1158015620007a9573d6000803e3d6000fd5b505050506040513d6020811015620007c057600080fd5b810190808051906020019092919050505091508190508073ffffffffffffffffffffffffffffffffffffffff16637fc15a2e6040518163ffffffff167c0100000000000000000000000000000000000000000000000000000000028152600401602060405180830381600087803b1580156200083b57600080fd5b505af115801562000850573d6000803e3d6000fd5b505050506040513d60208110156200086757600080fd5b81019080805190602001909291905050509250505090565b600460009054906101000a900473ffffffffffffffffffffffffffffffffffffffff1681565b600360009054906101000a900473ffffffffffffffffffffffffffffffffffffffff1673ffffffffffffffffffffffffffffffffffffffff163373ffffffffffffffffffffffffffffffffffffffff161415156200090257600080fd5b80600860006002811015156200091457fe5b018190555050565b6000602052816000526040600020602052806000526040600020600091509150505481565b600a816002811015156200095157fe5b016000915090505481565b600360009054906101000a900473ffffffffffffffffffffffffffffffffffffffff1673ffffffffffffffffffffffffffffffffffffffff163373ffffffffffffffffffffffffffffffffffffffff16141515620009b957600080fd5b80600a6000600281101515620009cb57fe5b018190555050565b6001602052816000526040600020602052806000526040600020600091509150505481565b6000600760009054906101000a900473ffffffffffffffffffffffffffffffffffffffff1673ffffffffffffffffffffffffffffffffffffffff16635bf5d54c6040518163ffffffff167c0100000000000000000000000000000000000000000000000000000000028152600401602060405180830381600087803b15801562000a8157600080fd5b505af115801562000a96573d6000803e3d6000fd5b505050506040513d602081101562000aad57600080fd5b8101908080519060200190929190505050905090565b600062000acf620009f8565b14151562000adc57600080fd5b62000ae83382620019ad565b151562000af457600080fd5b600660009054906101000a900473ffffffffffffffffffffffffffffffffffffffff1673ffffffffffffffffffffffffffffffffffffffff166323b872dd3330846040518463ffffffff167c0100000000000000000000000000000000000000000000000000000000028152600401808473ffffffffffffffffffffffffffffffffffffffff1673ffffffffffffffffffffffffffffffffffffffff1681526020018373ffffffffffffffffffffffffffffffffffffffff1673ffffffffffffffffffffffffffffffffffffffff1681526020018281526020019350505050602060405180830381600087803b15801562000bee57600080fd5b505af115801562000c03573d6000803e3d6000fd5b505050506040513d602081101562000c1a57600080fd5b8101908080519060200190929190505050151562000c3757600080fd5b62000ca5816001600062000c4a62000708565b815260200190815260200160002060003373ffffffffffffffffffffffffffffffffffffffff1673ffffffffffffffffffffffffffffffffffffffff1681526020019081526020016000205462001a1d90919063ffffffff16565b6001600062000cb362000708565b815260200190815260200160002060003373ffffffffffffffffffffffffffffffffffffffff1673ffffffffffffffffffffffffffffffffffffffff168152602001908152602001600020819055503373ffffffffffffffffffffffffffffffffffffffff167efaaf3336e5c925e4d3017cc75d38ca026330a20faef146fd24501f98d16cb78262000d4462000708565b604051808381526020018281526020019250505060405180910390a250565b600062000d6f620009f8565b14151562000d7c57600080fd5b62000d8933838362001a3a565b151562000d9557600080fd5b806001600062000da462000708565b815260200190815260200160002060003373ffffffffffffffffffffffffffffffffffffffff1673ffffffffffffffffffffffffffffffffffffffff168152602001908152602001600020541015151562000dfe57600080fd5b62000e6b8160008062000e1062000708565b815260200190815260200160002060008573ffffffffffffffffffffffffffffffffffffffff1673ffffffffffffffffffffffffffffffffffffffff1681526020019081526020016000205462001a1d90919063ffffffff16565b60008062000e7862000708565b815260200190815260200160002060008473ffffffffffffffffffffffffffffffffffffffff1673ffffffffffffffffffffffffffffffffffffffff16815260200190815260200160002081905550806001600062000ed662000708565b815260200190815260200160002060003373ffffffffffffffffffffffffffffffffffffffff1673ffffffffffffffffffffffffffffffffffffffff168152602001908152602001600020600082825403925050819055508173ffffffffffffffffffffffffffffffffffffffff163373ffffffffffffffffffffffffffffffffffffffff167f6a92c4ce4cbb892528ab39f7d674be0f6b1579b54ed8e77d95ad506819fd72c88362000f8862000708565b604051808381526020018281526020019250505060405180910390a35050565b600760009054906101000a900473ffffffffffffffffffffffffffffffffffffffff1681565b600360009054906101000a900473ffffffffffffffffffffffffffffffffffffffff1681565b600360009054906101000a900473ffffffffffffffffffffffffffffffffffffffff1673ffffffffffffffffffffffffffffffffffffffff163373ffffffffffffffffffffffffffffffffffffffff161415156200105157600080fd5b80600a60016002811015156200106357fe5b018190555050565b600080600080600085141515156200108257600080fd5b60648602925084838115156200109457fe5b0491506064828802811515620010a657fe5b0490508093505050509392505050565b82620010c162001cd4565b80828152602001915050604051809103906000f080158015620010e8573d6000803e3d6000fd5b50600760006101000a81548173ffffffffffffffffffffffffffffffffffffffff021916908373ffffffffffffffffffffffffffffffffffffffff160217905550600760009054906101000a900473ffffffffffffffffffffffffffffffffffffffff1673ffffffffffffffffffffffffffffffffffffffff1663842652a6836040518263ffffffff167c010000000000000000000000000000000000000000000000000000000002815260040180828152602001915050600060405180830381600087803b158015620011bb57600080fd5b505af1158015620011d0573d6000803e3d6000fd5b50505050600760009054906101000a900473ffffffffffffffffffffffffffffffffffffffff1673ffffffffffffffffffffffffffffffffffffffff1663842652a6826040518263ffffffff167c010000000000000000000000000000000000000000000000000000000002815260040180828152602001915050600060405180830381600087803b1580156200126657600080fd5b505af11580156200127b573d6000803e3d6000fd5b505050507ff369b06e840a30eacc9a6075343f62ef138689a44c1c3ef52cb24e6c692c980483838360405180848152602001838152602001828152602001935050505060405180910390a1505050565b600360009054906101000a900473ffffffffffffffffffffffffffffffffffffffff1673ffffffffffffffffffffffffffffffffffffffff163373ffffffffffffffffffffffffffffffffffffffff161415156200132857600080fd5b80600860016002811015156200133a57fe5b018190555050565b600560009054906101000a900473ffffffffffffffffffffffffffffffffffffffff1681565b6008816002811015156200137857fe5b016000915090505481565b600073ffffffffffffffffffffffffffffffffffffffff16600073ffffffffffffffffffffffffffffffffffffffff167f6a92c4ce4cbb892528ab39f7d674be0f6b1579b54ed8e77d95ad506819fd72c8426000604051808381526020018281526020019250505060405180910390a3565b6000600162001403620009f8565b1415156200141057600080fd5b60011515600460009054906101000a900473ffffffffffffffffffffffffffffffffffffffff1673ffffffffffffffffffffffffffffffffffffffff16633af32abf336040518263ffffffff167c0100000000000000000000000000000000000000000000000000000000028152600401808273ffffffffffffffffffffffffffffffffffffffff1673ffffffffffffffffffffffffffffffffffffffff168152602001915050602060405180830381600087803b158015620014d257600080fd5b505af1158015620014e7573d6000803e3d6000fd5b505050506040513d6020811015620014fe57600080fd5b810190808051906020019092919050505015151415156200151e57600080fd5b6000600260006200152e62000708565b8152602001908152602001600020541115156200154a57600080fd5b620016c5600660009054906101000a900473ffffffffffffffffffffffffffffffffffffffff1673ffffffffffffffffffffffffffffffffffffffff166370a08231306040518263ffffffff167c0100000000000000000000000000000000000000000000000000000000028152600401808273ffffffffffffffffffffffffffffffffffffffff1673ffffffffffffffffffffffffffffffffffffffff168152602001915050602060405180830381600087803b1580156200160c57600080fd5b505af115801562001621573d6000803e3d6000fd5b505050506040513d60208110156200163857600080fd5b81019080805190602001909291905050506000806200165662000708565b815260200190815260200160002060003373ffffffffffffffffffffffffffffffffffffffff1673ffffffffffffffffffffffffffffffffffffffff1681526020019081526020016000205460026000620016b062000708565b8152602001908152602001600020546200106b565b9050600660009054906101000a900473ffffffffffffffffffffffffffffffffffffffff1673ffffffffffffffffffffffffffffffffffffffff1663a9059cbb33836040518363ffffffff167c0100000000000000000000000000000000000000000000000000000000028152600401808373ffffffffffffffffffffffffffffffffffffffff1673ffffffffffffffffffffffffffffffffffffffff16815260200182815260200192505050602060405180830381600087803b1580156200178d57600080fd5b505af1158015620017a2573d6000803e3d6000fd5b505050506040513d6020811015620017b957600080fd5b8101908080519060200190929190505050503373ffffffffffffffffffffffffffffffffffffffff167f68a01c51691a9f9e26f898f67b3a9a77f49e2805a1458883efa86e163865541a826200180e62000708565b604051808381526020018281526020019250505060405180910390a250565b600360009054906101000a900473ffffffffffffffffffffffffffffffffffffffff1673ffffffffffffffffffffffffffffffffffffffff163373ffffffffffffffffffffffffffffffffffffffff161415156200188a57600080fd5b600073ffffffffffffffffffffffffffffffffffffffff168173ffffffffffffffffffffffffffffffffffffffff1614151515620018c757600080fd5b8073ffffffffffffffffffffffffffffffffffffffff16600360009054906101000a900473ffffffffffffffffffffffffffffffffffffffff1673ffffffffffffffffffffffffffffffffffffffff167f8be0079c531659141344cd1fd0a4f28419497f9722a3daafe3b4186f6b6457e060405160405180910390a380600360006101000a81548173ffffffffffffffffffffffffffffffffffffffff021916908373ffffffffffffffffffffffffffffffffffffffff16021790555050565b600660009054906101000a900473ffffffffffffffffffffffffffffffffffffffff1681565b600062001a1560016000620019c162000708565b815260200190815260200160002060008573ffffffffffffffffffffffffffffffffffffffff1673ffffffffffffffffffffffffffffffffffffffff16815260200190815260200160002054830162001c58565b905092915050565b6000818301905082811015151562001a3157fe5b80905092915050565b6000600560009054906101000a900473ffffffffffffffffffffffffffffffffffffffff1673ffffffffffffffffffffffffffffffffffffffff16633af32abf856040518263ffffffff167c0100000000000000000000000000000000000000000000000000000000028152600401808273ffffffffffffffffffffffffffffffffffffffff1673ffffffffffffffffffffffffffffffffffffffff168152602001915050602060405180830381600087803b15801562001afa57600080fd5b505af115801562001b0f573d6000803e3d6000fd5b505050506040513d602081101562001b2657600080fd5b8101908080519060200190929190505050801562001c3b5750600460009054906101000a900473ffffffffffffffffffffffffffffffffffffffff1673ffffffffffffffffffffffffffffffffffffffff16633af32abf846040518263ffffffff167c0100000000000000000000000000000000000000000000000000000000028152600401808273ffffffffffffffffffffffffffffffffffffffff1673ffffffffffffffffffffffffffffffffffffffff168152602001915050602060405180830381600087803b15801562001bfd57600080fd5b505af115801562001c12573d6000803e3d6000fd5b505050506040513d602081101562001c2957600080fd5b81019080805190602001909291905050505b801562001c4f575062001c4e8262001c96565b5b90509392505050565b60006008600060028110151562001c6b57fe5b0154821015801562001c8f57506008600160028110151562001c8957fe5b01548211155b9050919050565b6000600a600060028110151562001ca957fe5b0154821015801562001ccd5750600a600160028110151562001cc757fe5b01548211155b9050919050565b604051610ecd8062001ce6833901905600608060405234801561001057600080fd5b50604051602080610ecd833981018060405281019080805190602001909291905050508061003c610118565b80828152602001915050604051809103906000f080158015610062573d6000803e3d6000fd5b50600160006101000a81548173ffffffffffffffffffffffffffffffffffffffff021916908373ffffffffffffffffffffffffffffffffffffffff160217905550806100ac610128565b80828152602001915050604051809103906000f0801580156100d2573d6000803e3d6000fd5b506000806101000a81548173ffffffffffffffffffffffffffffffffffffffff021916908373ffffffffffffffffffffffffffffffffffffffff16021790555050610138565b6040516105bd8061067683390190565b60405161029a80610c3383390190565b61052f806101476000396000f300608060405260043610610062576000357c0100000000000000000000000000000000000000000000000000000000900463ffffffff1680635bf5d54c146100675780637d80c95a14610092578063842652a6146100e9578063ef78d4fd14610116575b600080fd5b34801561007357600080fd5b5061007c61016d565b6040518082815260200191505060405180910390f35b34801561009e57600080fd5b506100a761040c565b604051808273ffffffffffffffffffffffffffffffffffffffff1673ffffffffffffffffffffffffffffffffffffffff16815260200191505060405180910390f35b3480156100f557600080fd5b5061011460048036038101908080359060200190929190505050610432565b005b34801561012257600080fd5b5061012b6104de565b604051808273ffffffffffffffffffffffffffffffffffffffff1673ffffffffffffffffffffffffffffffffffffffff16815260200191505060405180910390f35b6000806000806000809054906101000a900473ffffffffffffffffffffffffffffffffffffffff1673ffffffffffffffffffffffffffffffffffffffff1663dd6239fc6040518163ffffffff167c0100000000000000000000000000000000000000000000000000000000028152600401602060405180830381600087803b1580156101f857600080fd5b505af115801561020c573d6000803e3d6000fd5b505050506040513d602081101561022257600080fd5b81019080805190602001909291905050509250600160009054906101000a900473ffffffffffffffffffffffffffffffffffffffff1673ffffffffffffffffffffffffffffffffffffffff16630ef267436040518163ffffffff167c0100000000000000000000000000000000000000000000000000000000028152600401602060405180830381600087803b1580156102bb57600080fd5b505af11580156102cf573d6000803e3d6000fd5b505050506040513d60208110156102e557600080fd5b81019080805190602001909291905050509150600082141561030a5760009350610406565b600090505b8181101561040557600160009054906101000a900473ffffffffffffffffffffffffffffffffffffffff1673ffffffffffffffffffffffffffffffffffffffff16636f54dce582856040518363ffffffff167c01000000000000000000000000000000000000000000000000000000000281526004018083815260200182815260200192505050602060405180830381600087803b1580156103b057600080fd5b505af11580156103c4573d6000803e3d6000fd5b505050506040513d60208110156103da57600080fd5b8101908080519060200190929190505050156103f857809350610406565b808060010191505061030f565b5b50505090565b600160009054906101000a900473ffffffffffffffffffffffffffffffffffffffff1681565b600160009054906101000a900473ffffffffffffffffffffffffffffffffffffffff1673ffffffffffffffffffffffffffffffffffffffff1663959ac484826040518263ffffffff167c010000000000000000000000000000000000000000000000000000000002815260040180828152602001915050600060405180830381600087803b1580156104c357600080fd5b505af11580156104d7573d6000803e3d6000fd5b5050505050565b6000809054906101000a900473ffffffffffffffffffffffffffffffffffffffff16815600a165627a7a72305820f2bc78b7822098a2189435d25ed96fbe2a69dc70c98bece5a916d11cab15974b0029608060405234801561001057600080fd5b506040516020806105bd8339810180604052810190808051906020019092919050505080600381905550506105738061004a6000396000f300608060405260043610610099576000357c0100000000000000000000000000000000000000000000000000000000900463ffffffff1680630ef267431461009e5780632f91f1f4146100c95780634a720f27146100f45780635439e423146101355780636f54dce514610160578063959ac484146101af578063a4ece52c146101dc578063b1becf2a146101f3578063f2a75fe414610234575b600080fd5b3480156100aa57600080fd5b506100b361024b565b6040518082815260200191505060405180910390f35b3480156100d557600080fd5b506100de610255565b6040518082815260200191505060405180910390f35b34801561010057600080fd5b5061011f6004803603810190808035906020019092919050505061025b565b6040518082815260200191505060405180910390f35b34801561014157600080fd5b5061014a61027e565b6040518082815260200191505060405180910390f35b34801561016c57600080fd5b506101956004803603810190808035906020019092919080359060200190929190505050610284565b604051808215151515815260200191505060405180910390f35b3480156101bb57600080fd5b506101da60048036038101908080359060200190929190505050610300565b005b3480156101e857600080fd5b506101f16103e3565b005b3480156101ff57600080fd5b5061021e600480360381019080803590602001909291905050506104f3565b6040518082815260200191505060405180910390f35b34801561024057600080fd5b5061024961050b565b005b6000600454905090565b60035481565b60008181548110151561026a57fe5b906000526020600020016000915090505481565b60025481565b6000808314156102b25760008381548110151561029d57fe5b906000526020600020015482111590506102fa565b6000600184038154811015156102c457fe5b906000526020600020015482101580156102f757506000838154811015156102e857fe5b90600052602060002001548211155b90505b92915050565b60035481600254011115151561037e576040517f08c379a00000000000000000000000000000000000000000000000000000000081526004018080602001828103825260128152602001807f424c4f434b5f4e554d5f4f564552464c4f57000000000000000000000000000081525060200191505060405180910390fd5b60008160025401908060018154018082558091505090600182039060005260206000200160009091929091909150555080600260008282540192505081905550600460008154809291906001019190505550600354600254111515156103e057fe5b50565b600080600080549050111515610461576040517f08c379a000000000000000000000000000000000000000000000000000000000815260040180806020018281038252600d8152602001807f454d5054592053544f524147450000000000000000000000000000000000000081525060200191505060405180910390fd5b600060016000805490500381548110151561047857fe5b90600052602060002001549050600060016000805490500381548110151561049c57fe5b90600052602060002001600090556000808054905014156104cc57600060048190555060006002819055506104f0565b60046000815480929190600190039190505550806002600082825403925050819055505b50565b60016020528060005260406000206000915090505481565b60008090505b60008054905081111515610534576105276103e3565b8080600101915050610511565b6000808054905014151561054457fe5b505600a165627a7a72305820bc935eb3467072bc2fe268e50839cd1eacc31a6907a63c3e8b0a53fcc9e61bf50029608060405234801561001057600080fd5b5060405160208061029a833981018060405281019080805190602001909291905050506000811115156100ab576040517f08c379a000000000000000000000000000000000000000000000000000000000815260040180806020018281038252600c8152602001807f454d5054595f504552494f44000000000000000000000000000000000000000081525060200191505060405180910390fd5b8060008190555043600181905550506101d1806100c96000396000f30060806040526004361061006d576000357c0100000000000000000000000000000000000000000000000000000000900463ffffffff1680632bc80f3a146100725780637f89b5ce1461009d5780637fc15a2e146100c8578063dd6239fc146100f3578063eb6ad24e1461011e575b600080fd5b34801561007e57600080fd5b50610087610149565b6040518082815260200191505060405180910390f35b3480156100a957600080fd5b506100b261014f565b6040518082815260200191505060405180910390f35b3480156100d457600080fd5b506100dd610155565b6040518082815260200191505060405180910390f35b3480156100ff57600080fd5b5061010861017e565b6040518082815260200191505060405180910390f35b34801561012a57600080fd5b5061013361018f565b6040518082815260200191505060405180910390f35b60005481565b60015481565b60008060015443031015151561016757fe5b600054600154430381151561017857fe5b04905090565b600061018861018f565b4303905090565b6000805461019b610155565b02600154019050905600a165627a7a72305820a0a114358d11151c2f5144479fd87806b0519eaea74de77545618e9017ea66ff0029a165627a7a72305820c85c9c4c70bcb507af2314c7067098678cdf2196881206d5d09d1f183a09e94a0029608060405234801561001057600080fd5b50604051602080610ecd833981018060405281019080805190602001909291905050508061003c610118565b80828152602001915050604051809103906000f080158015610062573d6000803e3d6000fd5b50600160006101000a81548173ffffffffffffffffffffffffffffffffffffffff021916908373ffffffffffffffffffffffffffffffffffffffff160217905550806100ac610128565b80828152602001915050604051809103906000f0801580156100d2573d6000803e3d6000fd5b506000806101000a81548173ffffffffffffffffffffffffffffffffffffffff021916908373ffffffffffffffffffffffffffffffffffffffff16021790555050610138565b6040516105bd8061067683390190565b60405161029a80610c3383390190565b61052f806101476000396000f300608060405260043610610062576000357c0100000000000000000000000000000000000000000000000000000000900463ffffffff1680635bf5d54c146100675780637d80c95a14610092578063842652a6146100e9578063ef78d4fd14610116575b600080fd5b34801561007357600080fd5b5061007c61016d565b6040518082815260200191505060405180910390f35b34801561009e57600080fd5b506100a761040c565b604051808273ffffffffffffffffffffffffffffffffffffffff1673ffffffffffffffffffffffffffffffffffffffff16815260200191505060405180910390f35b3480156100f557600080fd5b5061011460048036038101908080359060200190929190505050610432565b005b34801561012257600080fd5b5061012b6104de565b604051808273ffffffffffffffffffffffffffffffffffffffff1673ffffffffffffffffffffffffffffffffffffffff16815260200191505060405180910390f35b6000806000806000809054906101000a900473ffffffffffffffffffffffffffffffffffffffff1673ffffffffffffffffffffffffffffffffffffffff1663dd6239fc6040518163ffffffff167c0100000000000000000000000000000000000000000000000000000000028152600401602060405180830381600087803b1580156101f857600080fd5b505af115801561020c573d6000803e3d6000fd5b505050506040513d602081101561022257600080fd5b81019080805190602001909291905050509250600160009054906101000a900473ffffffffffffffffffffffffffffffffffffffff1673ffffffffffffffffffffffffffffffffffffffff16630ef267436040518163ffffffff167c0100000000000000000000000000000000000000000000000000000000028152600401602060405180830381600087803b1580156102bb57600080fd5b505af11580156102cf573d6000803e3d6000fd5b505050506040513d60208110156102e557600080fd5b81019080805190602001909291905050509150600082141561030a5760009350610406565b600090505b8181101561040557600160009054906101000a900473ffffffffffffffffffffffffffffffffffffffff1673ffffffffffffffffffffffffffffffffffffffff16636f54dce582856040518363ffffffff167c01000000000000000000000000000000000000000000000000000000000281526004018083815260200182815260200192505050602060405180830381600087803b1580156103b057600080fd5b505af11580156103c4573d6000803e3d6000fd5b505050506040513d60208110156103da57600080fd5b8101908080519060200190929190505050156103f857809350610406565b808060010191505061030f565b5b50505090565b600160009054906101000a900473ffffffffffffffffffffffffffffffffffffffff1681565b600160009054906101000a900473ffffffffffffffffffffffffffffffffffffffff1673ffffffffffffffffffffffffffffffffffffffff1663959ac484826040518263ffffffff167c010000000000000000000000000000000000000000000000000000000002815260040180828152602001915050600060405180830381600087803b1580156104c357600080fd5b505af11580156104d7573d6000803e3d6000fd5b5050505050565b6000809054906101000a900473ffffffffffffffffffffffffffffffffffffffff16815600a165627a7a72305820f2bc78b7822098a2189435d25ed96fbe2a69dc70c98bece5a916d11cab15974b0029608060405234801561001057600080fd5b506040516020806105bd8339810180604052810190808051906020019092919050505080600381905550506105738061004a6000396000f300608060405260043610610099576000357c0100000000000000000000000000000000000000000000000000000000900463ffffffff1680630ef267431461009e5780632f91f1f4146100c95780634a720f27146100f45780635439e423146101355780636f54dce514610160578063959ac484146101af578063a4ece52c146101dc578063b1becf2a146101f3578063f2a75fe414610234575b600080fd5b3480156100aa57600080fd5b506100b361024b565b6040518082815260200191505060405180910390f35b3480156100d557600080fd5b506100de610255565b6040518082815260200191505060405180910390f35b34801561010057600080fd5b5061011f6004803603810190808035906020019092919050505061025b565b6040518082815260200191505060405180910390f35b34801561014157600080fd5b5061014a61027e565b6040518082815260200191505060405180910390f35b34801561016c57600080fd5b506101956004803603810190808035906020019092919080359060200190929190505050610284565b604051808215151515815260200191505060405180910390f35b3480156101bb57600080fd5b506101da60048036038101908080359060200190929190505050610300565b005b3480156101e857600080fd5b506101f16103e3565b005b3480156101ff57600080fd5b5061021e600480360381019080803590602001909291905050506104f3565b6040518082815260200191505060405180910390f35b34801561024057600080fd5b5061024961050b565b005b6000600454905090565b60035481565b60008181548110151561026a57fe5b906000526020600020016000915090505481565b60025481565b6000808314156102b25760008381548110151561029d57fe5b906000526020600020015482111590506102fa565b6000600184038154811015156102c457fe5b906000526020600020015482101580156102f757506000838154811015156102e857fe5b90600052602060002001548211155b90505b92915050565b60035481600254011115151561037e576040517f08c379a00000000000000000000000000000000000000000000000000000000081526004018080602001828103825260128152602001807f424c4f434b5f4e554d5f4f564552464c4f57000000000000000000000000000081525060200191505060405180910390fd5b60008160025401908060018154018082558091505090600182039060005260206000200160009091929091909150555080600260008282540192505081905550600460008154809291906001019190505550600354600254111515156103e057fe5b50565b600080600080549050111515610461576040517f08c379a000000000000000000000000000000000000000000000000000000000815260040180806020018281038252600d8152602001807f454d5054592053544f524147450000000000000000000000000000000000000081525060200191505060405180910390fd5b600060016000805490500381548110151561047857fe5b90600052602060002001549050600060016000805490500381548110151561049c57fe5b90600052602060002001600090556000808054905014156104cc57600060048190555060006002819055506104f0565b60046000815480929190600190039190505550806002600082825403925050819055505b50565b60016020528060005260406000206000915090505481565b60008090505b60008054905081111515610534576105276103e3565b8080600101915050610511565b6000808054905014151561054457fe5b505600a165627a7a72305820bc935eb3467072bc2fe268e50839cd1eacc31a6907a63c3e8b0a53fcc9e61bf50029608060405234801561001057600080fd5b5060405160208061029a833981018060405281019080805190602001909291905050506000811115156100ab576040517f08c379a000000000000000000000000000000000000000000000000000000000815260040180806020018281038252600c8152602001807f454d5054595f504552494f44000000000000000000000000000000000000000081525060200191505060405180910390fd5b8060008190555043600181905550506101d1806100c96000396000f30060806040526004361061006d576000357c0100000000000000000000000000000000000000000000000000000000900463ffffffff1680632bc80f3a146100725780637f89b5ce1461009d5780637fc15a2e146100c8578063dd6239fc146100f3578063eb6ad24e1461011e575b600080fd5b34801561007e57600080fd5b50610087610149565b6040518082815260200191505060405180910390f35b3480156100a957600080fd5b506100b261014f565b6040518082815260200191505060405180910390f35b3480156100d457600080fd5b506100dd610155565b6040518082815260200191505060405180910390f35b3480156100ff57600080fd5b5061010861017e565b6040518082815260200191505060405180910390f35b34801561012a57600080fd5b5061013361018f565b6040518082815260200191505060405180910390f35b60005481565b60015481565b60008060015443031015151561016757fe5b600054600154430381151561017857fe5b04905090565b600061018861018f565b4303905090565b6000805461019b610155565b02600154019050905600a165627a7a72305820a0a114358d11151c2f5144479fd87806b0519eaea74de77545618e9017ea66ff0029",
  "source": "pragma solidity ^0.4.24;\n\nimport \"./TRLInterface.sol\";\nimport \"openzeppelin-solidity/contracts/math/SafeMath.sol\";\nimport \"openzeppelin-solidity/contracts/token/ERC20/StandardToken.sol\";\nimport \"@frontier-token-research/role-registries/contracts/Registry.sol\";\nimport \"@frontier-token-research/role-registries/contracts/OwnedRegistryFactory.sol\";\nimport \"@frontier-token-research/cron/contracts/Period.sol\";\nimport \"@frontier-token-research/cron/contracts/PeriodicStages.sol\";\n\n\n/**\n* A Token Ranked List (TRL) enables voting with staked tokens periodically, over a registry of candidates\n**/\n\ncontract TRL is TRLInterface, Ownable {\n    using SafeMath for uint256;\n\n    // Registry of candidates to be voted\n    Registry public candidateRegistry;\n\n    // Registry of candidates allowed to vote\n    Registry public voterRegistry;\n\n    // Master Token, used to buy votes\n    StandardToken public token;\n\n    // Stages that come periodically \n    PeriodicStages public periodicStages;\n\n    // Minimum stake to participate in the period, 0 by default\n    uint256[2] public stakingConstraints = [0, 2^256 -1];\n\n    // Array setting up the limits when voting [min_amount, Max_amount]\n    uint256[2] public votingConstraints = [0, 2^256 -1];\n\n\n    /**\n    * Creates a new Instance of a Voting Lists\n    * @param _tokenAddress Address of the token used as an incentive for the pool\n    **/\n\n    constructor(\n        address _tokenAddress,\n        address _candidateRegistryAddress,\n        address _voterRegistryAddress,\n        uint256 _initialTTL,\n        uint256 _initialActiveTime,\n        uint256 _initialClaimTime)\n        public\n    {\n        require(\n            _candidateRegistryAddress != address(0) && \n            _voterRegistryAddress != address(0) && \n            _tokenAddress != address(0)\n        ); \n        token = StandardToken(_tokenAddress);\n        candidateRegistry = Registry(_candidateRegistryAddress);\n        voterRegistry = Registry(_voterRegistryAddress);\n        initPeriod(_initialTTL, _initialActiveTime, _initialClaimTime);\n    }\n\n    /**\n    * Initializes a new period, taking as the TTL value the current from storage, and setting the state to 1\n    * Requires that the current period is Preparing (0)\n    **/\n\n    function initPeriod(uint256 _periodTTL, uint256 _activeTime, uint256 _claimTime) public {\n        periodicStages = new PeriodicStages(_periodTTL);\n        periodicStages.pushStage(_activeTime);\n        periodicStages.pushStage(_claimTime);\n        emit PeriodInit(_periodTTL, _activeTime, _claimTime);\n    }\n\n    /**\n    * @dev Exchanges the main token for an amount of votes\n    * @dev Requires previous allowance of expenditure of at least the amount required\n    * @dev Currently 1:1 exchange used, but this rate could be changed\n    * @param _amount Amount of votes that the voter wants to buy\n    **/\n\n    function buyTokenVotes(uint256 _amount) public {\n        require(currentStage() == 0);\n        require(canStake(msg.sender, _amount));\n        require(token.transferFrom(msg.sender,this, _amount));\n        votesBalance[currentPeriod()][msg.sender] = votesBalance[currentPeriod()][msg.sender].add(_amount);\n        emit VotesBought(msg.sender, _amount, currentPeriod());\n    }\n\n\n    /**\n    * @dev Adds a new vote for a candidate. It fails if the candidate hasn't approved before the specified amount\n    * @param _candidateAddress address of the candidate selected\n    * @param _amount of votes used\n    **/\n\n    function vote(address _candidateAddress, uint256 _amount) public {\n        require(currentStage() == 0);\n        require(canVote(msg.sender, _candidateAddress, _amount));\n        require(votesBalance[currentPeriod()][msg.sender] >= _amount);\n        votesReceived[currentPeriod()][_candidateAddress] = votesReceived[currentPeriod()][_candidateAddress].add(_amount);\n        votesBalance[currentPeriod()][msg.sender] -= _amount;\n        emit Vote(msg.sender,_candidateAddress, _amount, currentPeriod());\n    }\n\n    /**\n    * @dev Claims the correspondant Bounty from the Pool on the current periodIndex\n    **/\n\n    function claimBounty() public {\n        require(currentStage() == 1);\n        require(candidateRegistry.isWhitelisted(msg.sender) == true);\n        require(totalPeriodVotes[currentPeriod()] > 0);\n        uint256 totalAmount = calculateReward(\n            token.balanceOf(this),\n            votesReceived[currentPeriod()][msg.sender],\n            totalPeriodVotes[currentPeriod()]\n        );\n        token.transfer(msg.sender, totalAmount);\n        emit BountyRelased(msg.sender, totalAmount, currentPeriod());\n    }\n\n    /*\n    * @dev Sets the minimum stake to participate in a period \n    * @param _minimumStakeAmount minimum stake to be added\n    **/\n\n    function setMinimumStake(uint256 _minimumStakeAmount) public {\n        require(msg.sender == owner);\n        stakingConstraints[0] = _minimumStakeAmount;\n    }\n\n    /*\n    * @dev Sets the minimum stake to participate in a period \n    * @param _minimumStakeAmount minimum stake to be added\n    **/\n\n    function setMaximumStake(uint256 _maximumStakeAmount) public {\n        require(msg.sender == owner);\n        stakingConstraints[1] = _maximumStakeAmount;\n    }\n\n    /*\n    * @dev Sets a voting limit to allocate to one candidate\n    * @param _minimumStakeAmount minimum stake to be added\n    **/\n\n    function setMinVotingLimit(uint256 _minVoteAmount) public {\n        require(msg.sender == owner);\n        votingConstraints[0] = _minVoteAmount; \n    }\n\n    /*\n    * @dev Sets a voting limit to allocate to one candidate\n    * @param _minimumStakeAmount minimum stake to be added\n    **/\n\n    function setMaxVotingLimit(uint256 _maxVoteAmount) public {\n        require(msg.sender == owner);\n        votingConstraints[1] = _maxVoteAmount; \n    }\n\n    /**\n    * @dev Returns the current period number\n    **/\n\n    function currentPeriod() public view returns(uint256) { \n        address periodAddress = periodicStages.period();\n        Period period = Period(periodAddress);\n        return period.getPeriodNumber();\n    }\n    \n    /**\n    * @dev Returns the current stage number\n    **/\n\n    function currentStage() public view returns(uint256){\n        return periodicStages.currentStage();\n    }\n\n         \n    /**\n    * @dev Returns true if the given _sender can vote for a given _receiver\n    * @param _sender Account of the voter that is checked\n    * @param _receiver Account of the candidate to be voted\n    * @return true if the user can vote and the receiver is a candidate\n    **/\n\n    function canVote(\n        address _sender, \n        address _receiver,\n        uint256 _amount) \n        internal view returns (bool) \n    { \n        return voterRegistry.isWhitelisted(_sender) &&\n        candidateRegistry.isWhitelisted(_receiver) && \n        voteInsideConstraints(_amount);\n    }\n\n    /**\n    * @dev Returns true if the given _sender stake an amount of tokens\n    * @param _sender Account of the voter that is checked\n    * @param _amount Amount that is attempted to stake\n    * @return true if the user can vote and the receiver is a candidate\n    **/\n\n    function canStake(\n        address _sender, \n        uint256 _amount) \n        internal view returns (bool) \n    {\n        return (stakeInsideConstraints(_amount + votesBalance[currentPeriod()][_sender]));\n\n    } \n\n    /**\n    * @dev Returns true if the given _amount is insidse the TRL constraints\n    * @param _amount Account of the voter that is checked\n    * @return true if the amount of votes is inside the constraints set\n    **/\n\n    function stakeInsideConstraints(\n        uint256 _amount) \n        internal view returns (bool) \n    { \n        return _amount >= stakingConstraints[0] &&\n        _amount <= stakingConstraints[1];\n    }\n\n    /**\n    * @dev Returns true if the given _amount is insidse the TRL constraints\n    * @param _amount Account of the voter that is checked\n    * @return true if the amount of votes is inside the constraints set\n    **/\n\n    function voteInsideConstraints(\n        uint256 _amount) \n        internal view returns (bool) \n    { \n        return _amount >= votingConstraints[0] &&\n        _amount <= votingConstraints[1];\n    }\n\n    /**\n    * @dev Function that determines the current reward for each sender\n    * @param _poolAmount Total amount that is going to be shared among participants\n    * @param _claimerVotes Amount of votes of the candidate that is going to claim for the reward\n    * @param _totalVotes Total Amount of votes on a certain period\n    */\n\n    function calculateReward(\n        uint256 _poolAmount,\n        uint256 _claimerVotes,\n        uint256 _totalVotes)\n        pure public returns (uint256)\n    {\n        require(_totalVotes != 0);\n        uint256 auxDecimalVotes = _claimerVotes * 100;\n        uint256 auxPercentageVotes = auxDecimalVotes / _totalVotes;\n        uint256 totalAmount = _poolAmount * auxPercentageVotes / 100;\n        return totalAmount;\n    }\n\n    /**\n    * @dev Function that issues a test event. This is used to test the\n    *      trl-listener infrastructure\n    */\n\n    function launchTestEvent() public{\n        emit Vote(address(0), address(0),block.timestamp, 0);\n    }\n}\n",
  "sourcePath": "/Users/boss/git/frontier/trl-project/TRL/contracts/TRL.sol",
  "compiler": {
    "name": "solc",
    "version": "0.4.24+commit.e67f0147.Emscripten.clang"
  },
  "schemaVersion": "2.0.1",
  "updatedAt": "2018-10-04T09:55:02.084Z"
}