{
  "contractName": "Vault",
  "abi": [
    {
      "constant": true,
      "inputs": [],
      "name": "owner",
      "outputs": [
        {
          "name": "",
          "type": "address"
        }
      ],
      "payable": false,
      "stateMutability": "view",
      "type": "function"
    },
    {
      "constant": false,
      "inputs": [
        {
          "name": "newOwner",
          "type": "address"
        }
      ],
      "name": "transferOwnership",
      "outputs": [],
      "payable": false,
      "stateMutability": "nonpayable",
      "type": "function"
    },
    {
      "anonymous": false,
      "inputs": [
        {
          "indexed": true,
          "name": "id",
          "type": "uint256"
        },
        {
          "indexed": true,
          "name": "token",
          "type": "address"
        },
        {
          "indexed": true,
          "name": "to",
          "type": "address"
        },
        {
          "indexed": false,
          "name": "amount",
          "type": "uint256"
        }
      ],
      "name": "Transfer",
      "type": "event"
    },
    {
      "anonymous": false,
      "inputs": [
        {
          "indexed": true,
          "name": "id",
          "type": "uint256"
        },
        {
          "indexed": true,
          "name": "token",
          "type": "address"
        },
        {
          "indexed": true,
          "name": "sender",
          "type": "address"
        },
        {
          "indexed": false,
          "name": "amount",
          "type": "uint256"
        }
      ],
      "name": "Deposit",
      "type": "event"
    },
    {
      "anonymous": false,
      "inputs": [
        {
          "indexed": true,
          "name": "previousOwner",
          "type": "address"
        },
        {
          "indexed": true,
          "name": "newOwner",
          "type": "address"
        }
      ],
      "name": "OwnershipTransferred",
      "type": "event"
    },
    {
      "constant": false,
      "inputs": [
        {
          "name": "_vaultID",
          "type": "uint256"
        },
        {
          "name": "_token",
          "type": "address"
        },
        {
          "name": "_from",
          "type": "address"
        },
        {
          "name": "_value",
          "type": "uint256"
        }
      ],
      "name": "deposit",
      "outputs": [],
      "payable": false,
      "stateMutability": "nonpayable",
      "type": "function"
    },
    {
      "constant": false,
      "inputs": [
        {
          "name": "_vaultID",
          "type": "uint256"
        },
        {
          "name": "_token",
          "type": "address"
        },
        {
          "name": "_to",
          "type": "address"
        },
        {
          "name": "_value",
          "type": "uint256"
        }
      ],
      "name": "transfer",
      "outputs": [],
      "payable": false,
      "stateMutability": "nonpayable",
      "type": "function"
    },
    {
      "constant": true,
      "inputs": [
        {
          "name": "_vaultID",
          "type": "uint256"
        },
        {
          "name": "_token",
          "type": "address"
        }
      ],
      "name": "balance",
      "outputs": [
        {
          "name": "",
          "type": "uint256"
        }
      ],
      "payable": false,
      "stateMutability": "view",
      "type": "function"
    }
  ],
  "bytecode": "0x6080604052336000806101000a81548173ffffffffffffffffffffffffffffffffffffffff021916908373ffffffffffffffffffffffffffffffffffffffff1602179055506109b5806100536000396000f30060806040526004361061006d576000357c0100000000000000000000000000000000000000000000000000000000900463ffffffff168063061399341461007257806336cd52a6146100d35780638da5cb5b1461014a578063e4cca4b0146101a1578063f2fde38b14610218575b600080fd5b34801561007e57600080fd5b506100bd60048036038101908080359060200190929190803573ffffffffffffffffffffffffffffffffffffffff16906020019092919050505061025b565b6040518082815260200191505060405180910390f35b3480156100df57600080fd5b5061014860048036038101908080359060200190929190803573ffffffffffffffffffffffffffffffffffffffff169060200190929190803573ffffffffffffffffffffffffffffffffffffffff169060200190929190803590602001909291905050506102b6565b005b34801561015657600080fd5b5061015f610323565b604051808273ffffffffffffffffffffffffffffffffffffffff1673ffffffffffffffffffffffffffffffffffffffff16815260200191505060405180910390f35b3480156101ad57600080fd5b5061021660048036038101908080359060200190929190803573ffffffffffffffffffffffffffffffffffffffff169060200190929190803573ffffffffffffffffffffffffffffffffffffffff16906020019092919080359060200190929190505050610348565b005b34801561022457600080fd5b50610259600480360381019080803573ffffffffffffffffffffffffffffffffffffffff16906020019092919050505061035a565b005b60006001600084815260200190815260200160002060008373ffffffffffffffffffffffffffffffffffffffff1673ffffffffffffffffffffffffffffffffffffffff16815260200190815260200160002054905092915050565b6000809054906101000a900473ffffffffffffffffffffffffffffffffffffffff1673ffffffffffffffffffffffffffffffffffffffff163373ffffffffffffffffffffffffffffffffffffffff1614151561031157600080fd5b61031d848484846104af565b50505050565b6000809054906101000a900473ffffffffffffffffffffffffffffffffffffffff1681565b610354848484846106ca565b50505050565b6000809054906101000a900473ffffffffffffffffffffffffffffffffffffffff1673ffffffffffffffffffffffffffffffffffffffff163373ffffffffffffffffffffffffffffffffffffffff161415156103b557600080fd5b600073ffffffffffffffffffffffffffffffffffffffff168173ffffffffffffffffffffffffffffffffffffffff16141515156103f157600080fd5b8073ffffffffffffffffffffffffffffffffffffffff166000809054906101000a900473ffffffffffffffffffffffffffffffffffffffff1673ffffffffffffffffffffffffffffffffffffffff167f8be0079c531659141344cd1fd0a4f28419497f9722a3daafe3b4186f6b6457e060405160405180910390a3806000806101000a81548173ffffffffffffffffffffffffffffffffffffffff021916908373ffffffffffffffffffffffffffffffffffffffff16021790555050565b6000811115156104be57600080fd5b8273ffffffffffffffffffffffffffffffffffffffff1663a9059cbb83836040518363ffffffff167c0100000000000000000000000000000000000000000000000000000000028152600401808373ffffffffffffffffffffffffffffffffffffffff1673ffffffffffffffffffffffffffffffffffffffff16815260200182815260200192505050602060405180830381600087803b15801561056157600080fd5b505af1158015610575573d6000803e3d6000fd5b505050506040513d602081101561058b57600080fd5b810190808051906020019092919050505015156105a757600080fd5b61060a816001600087815260200190815260200160002060008673ffffffffffffffffffffffffffffffffffffffff1673ffffffffffffffffffffffffffffffffffffffff1681526020019081526020016000205461095490919063ffffffff16565b6001600086815260200190815260200160002060008573ffffffffffffffffffffffffffffffffffffffff1673ffffffffffffffffffffffffffffffffffffffff168152602001908152602001600020819055508173ffffffffffffffffffffffffffffffffffffffff168373ffffffffffffffffffffffffffffffffffffffff16857ff2dbd98d79f00f7aff338b824931d607bfcc63d47307162470f25a055102d3b0846040518082815260200191505060405180910390a450505050565b600081141515156106da57600080fd5b8173ffffffffffffffffffffffffffffffffffffffff163373ffffffffffffffffffffffffffffffffffffffff1614151561071457600080fd5b8273ffffffffffffffffffffffffffffffffffffffff166323b872dd8330846040518463ffffffff167c0100000000000000000000000000000000000000000000000000000000028152600401808473ffffffffffffffffffffffffffffffffffffffff1673ffffffffffffffffffffffffffffffffffffffff1681526020018373ffffffffffffffffffffffffffffffffffffffff1673ffffffffffffffffffffffffffffffffffffffff1681526020018281526020019350505050602060405180830381600087803b1580156107eb57600080fd5b505af11580156107ff573d6000803e3d6000fd5b505050506040513d602081101561081557600080fd5b8101908080519060200190929190505050151561083157600080fd5b610894816001600087815260200190815260200160002060008673ffffffffffffffffffffffffffffffffffffffff1673ffffffffffffffffffffffffffffffffffffffff1681526020019081526020016000205461096d90919063ffffffff16565b6001600086815260200190815260200160002060008573ffffffffffffffffffffffffffffffffffffffff1673ffffffffffffffffffffffffffffffffffffffff168152602001908152602001600020819055508173ffffffffffffffffffffffffffffffffffffffff168373ffffffffffffffffffffffffffffffffffffffff16857f2c0f148b435140de488c1b34647f1511c646f7077e87007bacf22ef9977a16d8846040518082815260200191505060405180910390a450505050565b600082821115151561096257fe5b818303905092915050565b6000818301905082811015151561098057fe5b809050929150505600a165627a7a72305820c4ef8b80950d9fb5ec5dbad634e152971905baf5ab60ce288d8b58654a91b4c10029",
  "source": "pragma solidity 0.4.24;\n\nimport \"openzeppelin-solidity/contracts/ownership/Ownable.sol\";\nimport \"openzeppelin-solidity/contracts/math/SafeMath.sol\";\nimport \"openzeppelin-solidity/contracts/token/ERC20/StandardToken.sol\";\n\n/**\n* A Smart contract including multiple Vaults identifiable by ID\n* Every Vault has the possibility of storing multiple ERC20 tokens\n* Don't send tokens directly to this contract using transfer or your funds may be lost, instead, use deposit.\n* Inspired by AragonOS Vault https://github.com/aragon/aragon-apps/blob/master/apps/vault/contracts/Vault.sol\n*/\n\n\ncontract Vault is Ownable {\n    using SafeMath for uint256;\n\n    event Transfer(uint256 indexed id, address indexed token, address indexed to, uint256 amount);\n    event Deposit(uint256 indexed id, address indexed token, address indexed sender, uint256 amount);\n\n    mapping (uint256 => mapping (address => uint256)) vaultBalance;\n\n\n    /**\n    * @dev Deposit `_value` `_token` to the vault\n    * @param _vaultID ID of the vault where tokens are being deposited\n    * @param _token Address of the token being transferred\n    * @param _from Entity that currently owns the tokens\n    * @param _value Amount of tokens being transferred\n    */\n\n    function deposit(uint256 _vaultID, address _token, address _from, uint256 _value) external {\n        _deposit(_vaultID, _token, _from, _value);\n    }\n\n    /**\n    * @dev Transfer `_value` `_token` from the Vault to `_to`\n    * @param _vaultID ID of the vault where tokens are being tranferred\n    * @param _token Address of the token being transferred\n    * @param _to Address of the recipient of tokens\n    * @param _value Amount of tokens being transferred\n    */\n\n    function transfer(uint256 _vaultID, address _token, address _to, uint256 _value)\n        external\n    {\n        require(msg.sender == owner);\n        _transfer(_vaultID, _token, _to, _value);\n    }\n\n    /**\n    * @dev Returns balance given a `_vaultID`\n    * @param _vaultID Identifier of the vault where the tokens have been deposited\n    * @param _token Adress of the ERC20 token\n    */\n\n    function balance(uint256 _vaultID, address _token) public view returns (uint256) {\n        return vaultBalance[_vaultID][_token];\n    }\n\n    function _deposit(uint256 _vaultID, address _token, address _from, uint256 _value) internal {\n        require(_value != 0);\n        require(msg.sender == _from);\n        require(ERC20(_token).transferFrom(_from, this, _value));\n        vaultBalance[_vaultID][_token] = vaultBalance[_vaultID][_token].add(_value);\n        emit Deposit(_vaultID, _token, _from, _value);\n    }\n\n    function _transfer(uint256 _vaultID, address _token, address _to, uint256 _value) internal {\n        require(_value > 0);\n        require(ERC20(_token).transfer(_to, _value));\n        vaultBalance[_vaultID][_token] = vaultBalance[_vaultID][_token].sub(_value);\n        emit Transfer(_vaultID, _token, _to, _value);\n    }\n}",
  "sourcePath": "/Users/carlosbuendia/Documents/Projects/consensys/Frontier/TRL/contracts/Vault.sol",
  "compiler": {
    "name": "solc",
    "version": "0.4.24+commit.e67f0147.Emscripten.clang"
  },
  "schemaVersion": "2.0.0",
  "updatedAt": "2018-10-10T20:04:49.129Z"
}